HM91817161514120250911V01.01    AU APGS000TP     20250911155416           
DT0005577267765251118083938857168445                    20250906ZHOU/MING                     GALAXYSERIAL20250911155416001   036+000000000103031000000000103031000000000092727000014836000501000000000000000000000000000000000000000000000000000000000000000000000      APG_QA                Shanghai             12345678                                                   DOSSIER88863350     DELIVERY10052025    PK88822139       DS88859218       KS88832139       AE88862604       IK88842734       20250911  PR88873515       AU88869965       AK88837314       RZ88874558                CHINA CRH      20250911   Beijing             190BEJBeijing             G713    ANNGNanning             G714    VYIWYiwu                G715    CHGHHangzhou            G716    FTSNTianjin             G717    A1SHAShanghai            Train__descript                      0
DC0005577267765251118083938893680991                    20250906DING/LEI                      GALAXYSERIAL20250911155416002   036+000000000026926000000000026926000000000024233000003877000501000000000000000000000000000000000000000000000000000000000000000000000      APG_QA                Shanghai             12345678                                                   DOSSIER88850829     DELIVERY10052025    PK88829374       DS88863945       KS88890978       AE88862913       IK88843995       20250911  PR88870071       AU88867427       AK88840812       RZ88834304                EH20250911155416 FVERYGOOD                      202509111554   Beijing             202509161554   Shanghai            005 00000900000000000000000000000000000000000000000000000000000000000000000000000000000000000000000000000000000000000000000000000000000000000000        0
DF0005577267765251118083918888575498307                 20250909PAN/MING                      GALAXYSERIAL20250911155416003   036+000000000186342000000000186342000000000167707000026833000501000000000000000000000000000000000000000000000000000000000000000000000      APG_QA                Shanghai             12345678                                                   DOSSIER88821644     DELIVERY10052025    PK88816521       DS88833640       KS88819869       AE88818637       IK88844276       20250911  PR88853302       AU88817274       AK88867552       RZ88896103                20250913HFY    080000000000129XF0000000000297XF0000000000078XF0000000000934MF0000000000819MFKRBFADB670U                                                                                                                                                   0U                  0
DO0005577267765251118083938874405595                    20250906DING/LEI                      GALAXYSERIAL20250911155416004   036+000000000193077000000000193077000000000173769000027803000501000000000000000000000000000000000000000000000000000000000000000000000      APG_QA                Shanghai             12345678                                                   DOSSIER88815417     DELIVERY10052025    PK88835460       DS88872178       KS88878973       AE88895470       IK88897215       20250911  PR88857775       AU88854045       AK88811643       RZ88895284                   OTHER_DESC                                                                                                                                                                                                                                                                 0
DT0005577267765251118083938825845408                    20250905ROBERT/GARCIA                 GALAXYSERIAL20250911155416005   036+000000000069520000000000069520000000000062568000010010000501000000000000000000000000000000000000000000000000000000000000000000000      APG_QA                Shanghai             12345678                                                   DOSSIER88837906     DELIVERY10052025    PK88822318       DS88847967       KS88876796       AE88875148       IK88899449       20250911  PR88895914       AU88897290       AK88862713       RZ88838120                CHINA CRH      20250911   Beijing             870WEHWeihai              G524    DJIQQianjiang           G525    CSJWShijiazhuang        G526    VCSXChangsha            G527    VDLCDalian              G528    D1SHAShanghai            Train__descript                      0
DT0005577267765251118083938855333766                    20250904DAVID/ANDERSON                GALAXYSERIAL20250911155416006   036+000000000028787000000000028787000000000025908000004145000501000000000000000000000000000000000000000000000000000000000000000000000      APG_QA                Shanghai             12345678                                                   DOSSIER88827065     DELIVERY10052025    PK88811598       DS88841691       KS88869140       AE88883057       IK88822534       20250911  PR88875763       AU88867594       AK88872917       RZ88818542                CHINA CRH      20250911   Beijing             800ZQZZhangjiakou         G239    BSYMShenyang            G240    CURCUrumqi              G241    VHETHohhot              G242    DDLCDalian              G243    A1SHAShanghai            Train__descript                      0
DA0005577267765251118083938821806085                    20250904QUENTIN/WU                    GALAXYSERIAL20250911155416007   036+000000000059350000000000059350000000000053415000008546000501000000000000000000000000000000000000000000000000000000000000000000000      APG_QA                Shanghai             12345678                                                   DOSSIER88812265     DELIVERY10052025    PK88895377       DS88835483       KS88852970       AE88862845       IK88824205       20250911  PR88862165       AU88865401       AK88884717       RZ88844829                C   0                                  DESCFEE                                                                                                                                                                                                                                0
DS0005577267765251118083938858035794                    20250908WU/JING                       GALAXYSERIAL20250911155416008   036+000000000130383000000000130383000000000117345000018775000501000000000000000000000000000000000000000000000000000000000000000000000      APG_QA                Shanghai             12345678                                                   DOSSIER88877735     DELIVERY10052025    PK88874852       DS88851615       KS88843661       AE88841125       IK88898121       20250911  PR88815093       AU88823521       AK88871394       RZ88890772                DREAMSEA                      20250911   Jiayuguan           6320250914   Xian                VERYGOOD                                                                                                                                                                        0
DS0005577267765251118083938895325230                    20250904BARBARA/TAYLOR                GALAXYSERIAL20250911155416009   036+000000000117938000000000117938000000000106144000016983000501000000000000000000000000000000000000000000000000000000000000000000000      APG_QA                Shanghai             12345678                                                   DOSSIER88880206     DELIVERY10052025    PK88866972       DS88865581       KS88845406       AE88838877       IK88864751       20250911  PR88826457       AU88852388       AK88862767       RZ88842387                DREAMSEA                      20250911   Yichun              1520250914   Jiamusi             VERYGOOD                                                                                                                                                                        0
DA0005577267765251118083938815520017                    20250909YANG/YANG                     GALAXYSERIAL20250911155416010   036+000000000117860000000000117860000000000106074000016971000501000000000000000000000000000000000000000000000000000000000000000000000      APG_QA                Shanghai             12345678                                                   DOSSIER88849291     DELIVERY10052025    PK88884451       DS88873191       KS88852118       AE88828123       IK88833978       20250911  PR88896808       AU88828396       AK88833530       RZ88896414                T   0                                  DESCFEE                                                                                                                                                                                                                                0
DC0005577267765251118083938814693200                    20250910CUI/LEI                       GALAXYSERIAL20250911155416011   036+000000000115871000000000115871000000000104283000016685000501000000000000000000000000000000000000000000000000000000000000000000000      APG_QA                Shanghai             12345678                                                   DOSSIER88898014     DELIVERY10052025    PK88890669       DS88869080       KS88833144       AE88881998       IK88862322       20250911  PR88838015       AU88877568       AK88855982       RZ88821372                EH20250911155416 CVERYGOOD                      202509111554   Beijing             202509161554   Shanghai            005 00000900000000000000000000000000000000000000000000000000000000000000000000000000000000000000000000000000000000000000000000000000000000000000        0
DH0005577267765251118083938888684364                    20250910JOHN/SMITH                    GALAXYSERIAL20250911155416012   036+000000000179131000000000179131000000000161217000025794000501000000000000000000000000000000000000000000000000000000000000000000000      APG_QA                Shanghai             12345678                                                   DOSSIER88845017     DELIVERY10052025    PK88863738       DS88857558       KS88853286       AE88816639       IK88825452       20250911  PR88842468       AU88818281       AK88852321       RZ88874271                  20250911155416                CONRAD SYDNEY                  202509110000   TOWNSVILLE          2025091300000001002990000000000000000   0000000000000000   0000000000000000   0000000000000000   0000000000000000   0000000000000000000000000000000 Hotle_descript      end 0
DH0005577267765251118083938882948305                    20250904WILLIAM/WILSON                GALAXYSERIAL20250911155416013   036+000000000061983000000000061983000000000055784000008925000501000000000000000000000000000000000000000000000000000000000000000000000      APG_QA                Shanghai             12345678                                                   DOSSIER88888769     DELIVERY10052025    PK88863586       DS88879937       KS88828337       AE88821268       IK88840972       20250911  PR88882987       AU88844519       AK88888736       RZ88874501                  20250911155416                SOFITEL GOLD COAST             202509110000   BALLARAT            2025091300000001002990000000000000000   0000000000000000   0000000000000000   0000000000000000   0000000000000000   0000000000000000000000000000000 Hotle_descript      end 0
DH0005577267765251118083938880485381                    20250906HAN/LEI                       GALAXYSERIAL20250911155416014   036+000000000050564000000000050564000000000045507000007281000501000000000000000000000000000000000000000000000000000000000000000000000      APG_QA                Shanghai             12345678                                                   DOSSIER88867226     DELIVERY10052025    PK88838995       DS88856523       KS88819927       AE88884020       IK88829585       20250911  PR88892795       AU88815997       AK88833789       RZ88818784                  20250911155416                HYATT PERTH                    202509110000   GEELONG             2025091300000001002990000000000000000   0000000000000000   0000000000000000   0000000000000000   0000000000000000   0000000000000000000000000000000 Hotle_descript      end 0
DO0005577267765251118083938870517076                    20250910LIU/JING                      GALAXYSERIAL20250911155416015   036+000000000052951000000000052951000000000047655000007624000501000000000000000000000000000000000000000000000000000000000000000000000      APG_QA                Shanghai             12345678                                                   DOSSIER88828181     DELIVERY10052025    PK88875046       DS88825010       KS88894882       AE88895940       IK88821211       20250911  PR88822212       AU88834604       AK88812044       RZ88831595                   OTHER_DESC                                                                                                                                                                                                                                                                 0
DO0005577267765251118083938896625133                    20250906WILLIAM/WILSON                GALAXYSERIAL20250911155416016   036+000000000190855000000000190855000000000171769000027483000501000000000000000000000000000000000000000000000000000000000000000000000      APG_QA                Shanghai             12345678                                                   DOSSIER88830946     DELIVERY10052025    PK88822123       DS88882367       KS88891335       AE88882440       IK88899098       20250911  PR88875311       AU88843462       AK88854931       RZ88845128                   OTHER_DESC                                                                                                                                                                                                                                                                 0
DC0005577267765251118083938872570436                    20250906LINDA/RODRIGUEZ               GALAXYSERIAL20250911155416017   036+000000000026508000000000026508000000000023857000003817000501000000000000000000000000000000000000000000000000000000000000000000000      APG_QA                Shanghai             12345678                                                   DOSSIER88825742     DELIVERY10052025    PK88874290       DS88894755       KS88844531       AE88833970       IK88861193       20250911  PR88879632       AU88868774       AK88826761       RZ88851942                EH20250911155416 FVERYGOOD                      202509111554   Beijing             202509161554   Shanghai            005 00000900000000000000000000000000000000000000000000000000000000000000000000000000000000000000000000000000000000000000000000000000000000000000        0
DH0005577267765251118083938887555893                    20250908MARY/JOHNSON                  GALAXYSERIAL20250911155416018   036+000000000137636000000000137636000000000123872000019819000501000000000000000000000000000000000000000000000000000000000000000000000      APG_QA                Shanghai             12345678                                                   DOSSIER88870685     DELIVERY10052025    PK88882707       DS88822095       KS88829788       AE88828318       IK88824638       20250911  PR88889854       AU88889957       AK88894422       RZ88839909                  20250911155416                PULLMAN CANBERRA               202509110000   PERTH               2025091300000001002990000000000000000   0000000000000000   0000000000000000   0000000000000000   0000000000000000   0000000000000000000000000000000 Hotle_descript      end 0
DT0005577267765251118083938811099128                    20250904YU/JING                       GALAXYSERIAL20250911155416019   036+000000000145469000000000145469000000000130922000020947000501000000000000000000000000000000000000000000000000000000000000000000000      APG_QA                Shanghai             12345678                                                   DOSSIER88845953     DELIVERY10052025    PK88879485       DS88897542       KS88886671       AE88838766       IK88841161       20250911  PR88821794       AU88887833       AK88845016       RZ88892349                CHINA CRH      20250911   Beijing             920NKGNanjing             G737    CHETHohhot              G738    BLYALuoyang             G739    CLZHLuzhou              G740    DHSNZhoushan            G741    V1SHAShanghai            Train__descript                      0
DT0005577267765251118083938827133356                    20250908ELIZABETH/MARTINEZ            GALAXYSERIAL20250911155416020   036+000000000171058000000000171058000000000153952000024632000501000000000000000000000000000000000000000000000000000000000000000000000      APG_QA                Shanghai             12345678                                                   DOSSIER88887969     DELIVERY10052025    PK88816645       DS88853392       KS88884940       AE88869699       IK88842798       20250911  PR88898217       AU88884002       AK88899845       RZ88878493                CHINA CRH      20250911   Beijing             430FOCFoshan              G799    VJNZJinzhou             G800    FCGQChangchun           G801    AXMNXiamen              G802    AXUZXuzhou              G803    F1SHAShanghai            Train__descript                      0
TM00022