HM91817161514120250914V01.01    AU APGS000TP     20250914085638           
DA0005577267765251118083938866133861                    20250908CUI/LEI                       GALAXYSERIAL20250914085638001   036+000000000189064000000000189064000000000170157000027225000501000000000000000000000000000000000000000000000000000000000000000000000      APG_QA                Shanghai             12345678                                                   DOSSIER88841889     DELIVERY10052025    PK88860703       DS88869243       KS88850185       AE88862174       IK88817522       20250914  PR88844953       AU88898218       AK88820829       RZ88895169                F   12509146627834                     DESCFEE                                                                                                                                                                                                                                0
DH0005577267765251118083938882996620                    20250907HAN/LEI                       GALAXYSERIAL20250914085638002   036+000000000149692000000000149692000000000134722000021555000501000000000000000000000000000000000000000000000000000000000000000000000      APG_QA                Shanghai             12345678                                                   DOSSIER88828070     DELIVERY10052025    PK88891695       DS88810893       KS88882822       AE88871350       IK88895335       20250914  PR88874858       AU88860088       AK88811757       RZ88834415                  20250914085638                PARK HYATT MELBOURNE           202509140000   CAIRNS              2025091600000001002990000000000000000   0000000000000000   0000000000000000   0000000000000000   0000000000000000   0000000000000000000000000000000 Hotle_descript      end 0
DA0005577267765251118083938815897355                    20250907MICHAEL/DAVIS                 GALAXYSERIAL20250914085638003   036+000000000149197000000000149197000000000134277000021484000501000000000000000000000000000000000000000000000000000000000000000000000      APG_QA                Shanghai             12345678                                                   DOSSIER88818483     DELIVERY10052025    PK88835683       DS88891359       KS88870291       AE88866701       IK88886334       20250914  PR88838282       AU88887292       AK88827573       RZ88891417                T   0                                  DESCFEE                                                                                                                                                                                                                                0
DF0005577267765251118083918889027334899                 20250907WEI/JING                      GALAXYSERIAL20250914085638004   036+000000000076687000000000076687000000000069018000011042000501000000000000000000000000000000000000000000000000000000000000000000000      APG_QA                Shanghai             12345678                                                   DOSSIER88817044     DELIVERY10052025    PK88898311       DS88820673       KS88828519       AE88893078       IK88841762       20250914  PR88816021       AU88810627       AK88863756       RZ88883509                20251002FAT    090000000000465MF0000000000298MF0000000000568MF0000000000586MF0000000000970XFFWDFXRX954B                                                                                                                                                   0E                  0
DT0005577267765251118083938887441691                    20250911GAO/FANG                      GALAXYSERIAL20250914085638005   036+000000000149033000000000149033000000000134129000021460000501000000000000000000000000000000000000000000000000000000000000000000000      APG_QA                Shanghai             12345678                                                   DOSSIER88839314     DELIVERY10052025    PK88870130       DS88831814       KS88811992       AE88817046       IK88894932       20250914  PR88818756       AU88857215       AK88827183       RZ88865136                CHINA CRH      20250914   Beijing             940JNZJinzhou             G398    FSHEShenyang            G399    FLYALuoyang             G400    DXUZXuzhou              G401    CNKGNanjing             G402    A1SHAShanghai            Train__descript                      0
TM00007
